{
  "contractName": "FirstContract",
  "abi": [
    {
      "inputs": [],
      "payable": false,
      "stateMutability": "nonpayable",
      "type": "constructor"
    },
    {
      "constant": true,
      "inputs": [],
      "name": "test",
      "outputs": [
        {
          "name": "",
          "type": "string"
        }
      ],
      "payable": false,
      "stateMutability": "pure",
      "type": "function"
    },
    {
      "constant": true,
      "inputs": [
        {
          "name": "name",
          "type": "string"
        }
      ],
      "name": "echo",
      "outputs": [
        {
          "name": "",
          "type": "string"
        }
      ],
      "payable": false,
      "stateMutability": "pure",
      "type": "function"
    }
  ],
  "bytecode": "0x608060405234801561001057600080fd5b50610236806100206000396000f30060806040526004361061004c576000357c0100000000000000000000000000000000000000000000000000000000900463ffffffff168063f15da72914610051578063f8a8fd6d14610133575b600080fd5b34801561005d57600080fd5b506100b8600480360381019080803590602001908201803590602001908080601f01602080910402602001604051908101604052809392919081815260200183838082843782019150505050505091929192905050506101c3565b6040518080602001828103825283818151815260200191508051906020019080838360005b838110156100f85780820151818401526020810190506100dd565b50505050905090810190601f1680156101255780820380516001836020036101000a031916815260200191505b509250505060405180910390f35b34801561013f57600080fd5b506101486101cd565b6040518080602001828103825283818151815260200191508051906020019080838360005b8381101561018857808201518184015260208101905061016d565b50505050905090810190601f1680156101b55780820380516001836020036101000a031916815260200191505b509250505060405180910390f35b6060819050919050565b60606040805190810160405280601281526020017f4869212057616e74207469636b6574733f2100000000000000000000000000008152509050905600a165627a7a723058202bba63214b34dcecd029741dc418744236bce7aaf609204d02dc0893665718010029",
  "source": "pragma solidity ^0.4.22;\n\n\ncontract FirstContract {\n    constructor() public{\n    }\n\n    function test() public pure returns (string) {\n        return \"Hi! Want tickets?!\";\n    }\n\n    function echo(string name) public pure returns (string) {\n        return name;\n    }\n}\n",
  "sourcePath": "/Users/jeff/Event-ticket-DApp/ticket/contracts/FirstContract.sol",
  "compiler": {
    "name": "solc",
    "version": "0.4.24+commit.e67f0147.Emscripten.clang"
  },
  "schemaVersion": "2.0.1",
  "updatedAt": "2018-07-12T07:23:00.368Z"
}